:100000000C947B0E0C94980E0C94980E0C94A131C9
:100010000C94980E0C94980E0C94980E0C94980EC8
:100020000C94980E0C94980E0C94461B0C94631F21
:100030000C945F2A0C94980E0C94980E0C94980EC5
:100040000C94980E0C94980E0C94980E0C94980E98
:100050000C94980E0C941E1C0C94980E0C94980EF4
:100060000C94980E0C94980E0C94980E0C94980E78
:100070000C94980E0C94980E0C94980E0C94980E68
:100080000C94980E0C94980E0C94980E0C94980E58
:100090000C94980E0C94980E0C94980E0C94980E48
:1000A0000C94980E0C94980E0C94980E000000007E
:1000B0000000000000000000000000000000000040
:1000C0000000000000000000000000000000000030
:1000D00000000000000000000080E0F0F8F83800A8
:1000E00000000080C0E0F0F00000000000000040D0
:1000F000607078787878F8FCFEFF7F7F7B7878F8FE
:10010000F8FEFFFFFF7F7B781800000000203038EA
:10011000BCFCFCFCFE7F3F3F3D3C3CBCFCFCFFFFCD
:100120007F3F3F3D3C3C3C1C0C00000000001E1F7C
:100130001F0F070301000070787E7F7F3F1F0701BC
:1001400000000000000000000000000000000000AF
:10015000000000000000000000000000000000009F
:10016000000000000000000000000000000000008F
:10017000000000000000000000000000000000007F
:10018000000000000000000000000000000000006F
:1001900000000000000000008080800000000000DF
:1001A000000000000000000000000000000000004F
:1001B00000000080E0F8FCFFFFFFFFFFFFFEFCF007
:1001C00080000000000000000000000000000000AF
:1001D0000000F0FFFFFF0F0707FFFFFF0F0707FFFC
:1001E000FFFCE0C000000000000000000000000074
:1001F00000007FFFFFFFFEFEFFFFFFFFFEFEFFFF91
:10020000FFFFFFFFFEF08000000000000000000084
:100210000000003FFFFFFFFFFFFFFFFFFFFFFFFFAB
:10022000FFFFFFFFFFFFFF000000000000000000D5
:10023000000000000FFFFFFFFF3FFFFFFFFFFFFF7A
:10024000FFDF3FFFFFFFFFF00000000000000000A5
:100250000000000000030F1F1F1E08070F07031FE9
:100260000F06000B1F1F3F1F0000000000000000D2
:10027000000000000000000000000000000000007E
:10028000000000000000000000000000000000006E
:10029000000000000000000000000000000000005E
:1002A000000000000000000000000000000000004E
:1002B000000000000000000000000000000000003E
:1002C000000000000000000000000000000000002E
:1002D00000000000000000000080E0F0F8F83800A6
:1002E00000000080C0E0F0F00000000000000040CE
:1002F000607078787878F8FCFEFF7F7F7B7878F8FC
:10030000F8FEFFFFFF7F7B781800000000203038E8
:10031000BCFCFCFCFE7F3F3F3D3C3CBCFCFCFFFFCB
:100320007F3F3F3D3C3C3C1C0C00000000001E1F7A
:100330001F0F070301000070787E7F7F3F1F0701BA
:1003400000000000000000000000000000000000AD
:10035000000000000000000000000000000000009D
:10036000000000000000000000000000000000008D
:10037000000000000000000000000000000000007D
:10038000000000000000000000000000000000006D
:10039000000000000080E0F0F0F0E0E0C08000002D
:1003A000000000000000000000000000000000004D
:1003B0000000F0FCFFFFFFFFFFFFFFFFFFFFFEF06D
:1003C00080000000000000000000000000000000AD
:1003D00000FEFFFFFFF7F7F7FFFFFFF7F7F7FFFF5D
:1003E000FFFCF8C00000000000000000000000005A
:1003F000000FFFFFFFFFFFFFFFFFFFFFFFFFFFFFFC
:10040000FFFFFFFFFEF00000000000000000000002
:10041000000007FFFFFFFFFFFFFFFFFFFFFFFFFFE2
:10042000FFFFFFFFFFFF00000000000000000000D2
:10043000000000017FFFFFE70FFFFFFFE7479F7FFF
:10044000FF7F7FFFFFFFFE000000000000000000B4
:10045000000000000001030302010001000003018D
:10046000000001030307030000000000000000007B
:10047000000000000000000000000000000000007C
:10048000000000000000000000000000000000006C
:10049000000000000000000000000000000000005C
:1004A000000000000000000000000000000000004C
:1004B000000000000000000000000000000000003C
:1004C000000000000000000000000000000000002C
:1004D00000000000000000000000C0C0C0C0C0C09C
:1004E000C0C000000000000000000000000000008C
:1004F000000000000000F0F0FFFFFFFFFFFFFFFF24
:10050000FFFF0000000000000000000000000000ED
:10051000000000000F0F0F0F0F0FFFFFFFFFFFFF87
:10052000FFFF0000000000000000000000000000CD
:1005300000000000000000000000FFFFFFFFFFFFC1
:10054000FFFF0000000000000000000000000000AD
:1005500000000000000000000000FFFFFFFFFFFFA1
:10056000FFFF00000000000000000000000000008D
:1005700000000000000000000000FFFFFFFFFFFF81
:10058000FFFF00000000000000000000000000006D
:100590000000C0C0C0C0F0F0F0F0FFFFFFFFFFFFA1
:1005A000FFFFF0F0F0F0C0C000000000000000000D
:1005B000000000000000000000000000000000003B
:1005C000000000000000000000000000000000002B
:1005D000000000000000C0C0C0C0C0C0C0C000001B
:1005E0000000000000000000000000000000F0F02B
:1005F000FCFC3F3F0F0FFFFFF3F33333CFCFFFFF81
:1006000000000000000000000000000000000303E4
:100610003F3F3333F0F0F3F3FCFC3C3C0C0CC3C322
:1006200000000000000000000000000000000000CA
:1006300000000000000000000000C0C0C0C0F0F0DA
:10064000F0F0F0F0C0C0000000000000000000006A
:1006500000000000C0C0FCFCFFFFCFCFCFCFFFFFEA
:10066000CFCFCFCFFFFFFCFC000000000000000058
:1006700000000000FFFFFFFFFFFFFFFFFFFFFFFF86
:10068000FFFFFFFFFFFFFFFFFCFC0000000000007A
:1006900000000000000003030303030303030F0F24
:1006A0003F3F0F0F0F0F0F0F03030000000000006C
:1006B000000000000000000000000000000000003A
:1006C000000000000000000000000000000000002A
:1006D00000000000000000000000C0C0C0C0C0C09A
:1006E000C0C000000000000000000000000000008A
:1006F000000000000000F0F0FFFFFFFFFFFFFFFF22
:10070000FFFF0000000000000000000000000000EB
:10071000000000000F0F0F0F0F0FFFFFFFFFFFFF85
:10072000FFFF0000000000000000000000000000CB
:1007300000000000000000000000FFFFFFFFFFFFBF
:10074000FFFF0000000000000000000000000000AB
:1007500000000000000000000000FFFFFFFFFFFF9F
:10076000FFFF00000000000000000000000000008B
:1007700000000000000000000000FFFFFFFFFFFF7F
:10078000FFFF00000000000000000000000000006B
:100790000000C0C0C0C0F0F0F0F0FFFFFFFFFFFF9F
:1007A000FFFFF0F0F0F0C0C000000000000000000B
:1007B0000000000000000000000000000000000039
:1007C0000000000000000000000000000000000029
:1007D0000000000000000000000000000000000019
:1007E0000000000000000000000000000000000009
:1007F000C0C0F0F0FCFC3C3CFFFFFFFFFFFFFFFF31
:10080000FCFC0000000000000000000000000000F0
:100810000F0FFFFFCCCCC0C0CFCFFFFFFFFF3F3F8C
:100820000F0F0000000000000000000000000000AA
:1008300000000000000003030303C3C3C0C0F0F0C6
:10084000F3F3F0F0C0C00000000000000000000062
:10085000000000000000FCFCFFFF0F0FCFCFFFFFE8
:100860000F0FCFCFFFFFFCFC0000000000000000D6
:1008700000000000FFFFFFFFFFFFFFFFFFFFFFFF84
:10088000FFFFFFFFFFFFFFFFFCFC00000000000078
:1008900000000000000003030303030303030F0F22
:1008A0003F3F0F0F0F0F0F0F03030000000000006A
:1008B0000000000000000000000000000000000038
:1008C0000000000000000000000000000000000028
:1008D0000000000000000000000000000000000018
:1008E0000000000000000000000000000000000008
:1008F0000000000000000000C0C0C0C0C0C0C0C0F8
:10090000C0C0000000000000000000000000C0C0E7
:10091000F0F0FCFCFFFF3F3F3F3F3F3F3F3FFFFF0B
:10092000FFFFFFFFFFFFFCFCC0C0000000000F0F37
:100930000F0F0F0F0000000000000000000000007B
:100940000303FFFFFFFFFFFFFFFF000000000000A9
:100950000000000000000000000000000000F0F0B7
:10096000FFFFFFFFFFFF3F3F0F0F000000000000F1
:1009700000000000000000000000F0F0FCFCFFFFA1
:10098000FFFF3F3F030300000000000000000000E5
:10099000C0C0FCFCFCFCFCFCFFFFFFFFFFFFFFFFF7
:1009A000FFFFFCFCFCFCFCFCF0F000000000000081
:1009B0000F0F0F0F0F0F0F0F0F0F0F0F0F0F0F0F47
:1009C0000F0F0F0F0F0F0F0F0303000000000000A9
:1009D0000000000000000000000000000000000017
:1009E0000000000000000000000000000000000007
:1009F00000000000000000000000000000000000F7
:100A00000000000000000000000000000000F0F006
:100A1000F0F00F0F0F0F00000000000000000000BA
:100A200000000F0F0F0FF0F0F0F000000000FFFFCC
:100A3000FFFF0000C0C0F0F0FCFCFCFCFCFCFCFC78
:100A4000F0F000000000FFFFFFFF00000000FFFFCC
:100A5000FFFF00000F0FFFFFFCFCFFFFFCFCFFFF90
:100A6000FFFFFFFF0000FFFFFFFF000000000F0F70
:100A70000F0FF0F0F0F0000003030F0F0F0F0F0F38
:100A80000F0FF3F3F0F00F0F0F0F00000000000046
:100A90000000000000000000000000000000000056
:100AA0000000000000000000000000000000000046
:100AB0000000000000000000000000000000000036
:100AC0000000000000000000000000000000000026
:100AD0000000000000000000000000000000000016
:100AE0000000000000000000000000000000000006
:100AF0000000000000000000C0C0C0C0C0C0C0C0F6
:100B0000C0C0000000000000000000000000C0C0E5
:100B1000F0F0FCFCFFFF3F3F3F3F3F3F3F3FFFFF09
:100B2000FFFFFFFFFFFFFCFCC0C0000000000F0F35
:100B30000F0F0F0F00000000000000000000000079
:100B40000303FFFFFFFFFFFFFFFF000000000000A7
:100B50000000000000000000000000000000F0F0B5
:100B6000FFFFFFFFFFFF3F3F0F0F000000000000EF
:100B700000000000000000000000F0F0FCFCFFFF9F
:100B8000FFFF3F3F030300000000000000000000E3
:100B9000C0C0FCFCFCFCFCFCFFFFFFFFFFFFFFFFF5
:100BA000FFFFFCFCFCFCFCFCF0F00000000000007F
:100BB0000F0F0F0F0F0F0F0F0F0F0F0F0F0F0F0F45
:100BC0000F0F0F0F0F0F0F0F0303000000000000A7
:100BD0000000000000000000000000000000000015
:100BE0000000000000000000000000000000000005
:100BF0000000C0C0C0C000000000000000000000F5
:100C00000000C0C0C0C00000000000000000FCFCEC
:100C1000FCFC0303030300000000000000000000D0
:100C2000000003030303FCFCFCFC00000000FFFFCA
:100C3000FFFF0000C0C0FCFCFFFF3F3FFFFF3F3F46
:100C4000FCFCF0F00000FFFFFFFF00000000FFFFD2
:100C5000FFFF0000FFFFFFFFFFFFFFFFFFFFFFFFA2
:100C60003F3F03030000FFFFFFFF000000000303FE
:100C700003033C3C3C3C0303030303030303000066
:100C800000003C3C3C3C0303030300000000000068
:100C90000000000000000000000000000000000054
:100CA0000000000000000000000000000000000044
:100CB0000000000000000000000000000000000034
:100CC0000000000000000000000000000000000024
:100CD0000000000000000000000000000000000014
:100CE0000000000000000000000000000000000004
:100CF0000000C0C0F0F0FCFCFCFCFCFCFCFCFCFCBC
:100D0000FCFCFCFCF0F0C0C0000000000000000093
:100D10000F0F0F0F0F0F030300000000000003036D
:100D20000F0FFFFFFFFFFFFFFCFC000000000000B3
:100D30000000000000000000000000000000C0C033
:100D4000F0F0FFFFFFFFFFFF3F3F0000000000004B
:100D5000000000000000FCFCFCFCFCFCFFFFFFFFAF
:100D6000FFFFFFFFFFFFC3C3000000000000000003
:100D700000000000000000000000000003030F0F4F
:100D8000FFFFFFFFFFFFFFFFFFFF0000000000006D
:100D90003C3CFCFCF0F0F0F0C0C0C0C0F0F0FCFC4B
:100DA000FFFFFFFFFFFF3F3F0000000000000000CB
:100DB0000000030303030F0F0F0F0F0F0F0F0F0F91
:100DC0000F0F0303000000000000000000000000FF
:100DD0000000000000000000000000000000000013
:100DE0000000000000000000000000000000000003
:100DF00000000000000000000000000000000000F3
:100E000000000000000000000000000000000000E2
:100E100000000000000000000000000000000000D2
:100E200000000000000000000000000000000000C2
:100E3000F0F0F0F0FFFFFFFFFFFFFFFFFFFFFFFFFE
:100E4000FFFFFFFFFFFFFCFC000000000000F0F0D0
:100E5000FFFFF3F3F3F3F3F3FFFFFFFFF3F3F3F31A
:100E6000F3F3FFFFFFFFFFFFFCFC00000000FFFFAC
:100E7000FFFFFFFFFFFFFFFFFFFFFFFFFFFFFFFF82
:100E8000FFFFFFFFFFFFFFFFFFFF000000003F3FEE
:100E90003F3F3F3F3F3F3F3F3F3F3F3F3F3F3F3F62
:100EA0003F3F3F3F3F3F3F3F3F3F000000000000CC
:100EB0000000000000000000000000000000000032
:100EC0000000000000000000000000000000000022
:100ED0000000000000000000000000000000000012
:100EE0000000000000000000000000000000000002
:100EF0000000C0C0F0F0FCFCFCFCFCFCFCFCFCFCBA
:100F0000FCFCFCFCF0F0C0C0000000000000000091
:100F10000F0F0F0F0F0F030300000000000003036B
:100F20000F0FFFFFFFFFFFFFFCFC000000000000B1
:100F30000000000000000000000000000000C0C031
:100F4000F0F0FFFFFFFFFFFF3F3F00000000000049
:100F5000000000000000FCFCFCFCFCFCFFFFFFFFAD
:100F6000FFFFFFFFFFFFC3C3000000000000000001
:100F700000000000000000000000000003030F0F4D
:100F8000FFFFFFFFFFFFFFFFFFFF0000000000006B
:100F90003C3CFCFCF0F0F0F0C0C0C0C0F0F0FCFC49
:100FA000FFFFFFFFFFFF3F3F0000000000000000C9
:100FB0000000030303030F0F0F0F0F0F0F0F0F0F8F
:100FC0000F0F0303000000000000000000000000FD
:100FD0000000000000000000000000000000000011
:100FE0000000000000000000000000000000000001
:100FF00000000000000000000000000000000000F1
:1010000000000000000000000000000000000000E0
:1010100000000000000000000000000000000000D0
:1010200000000000000000000000000000000000C0
:10103000F0F030303F3F3F3FFFFFFFFF3F3F3F3F7C
:101040003F3FFFFFFFFFFCFC000000000000F0F04E
:10105000FFFFFFFFFFFFFFFFFFFFFFFFFFFFFFFFA0
:10106000FFFFFFFFFFFFFFFFFCFC00000000FFFF92
:10107000FFFFFFFFFFFFFFFFFFFFFFFFFFFFFFFF80
:10108000FFFFFFFFFFFFFFFFFFFF000000003F3FEC
:101090003F3F3F3F3F3F3F3F3F3F3F3F3F3F3F3F60
:1010A0003F3F3F3F3F3F3F3F3F3F000000000000CA
:1010B0000000000000000000000000000000000030
:1010C0000000000000000000000000000000000020
:1010D0000000000000000000000000000000000010
:1010E0000000000000000000000000000000000000
:1010F00000000000000000000000000000000000F0
:1011000000000000000000000000000000000000DF
:1011100000000000000000000000000000000000CF
:1011200000000000000000000000000000000000BF
:1011300000000000000000000000000000000000AF
:10114000000000000000000000000000000000009F
:10115000000000000000000000000000000000008F
:10116000000000000000000000000000000000007F
:10117000000000000000000000000000000000006F
:10118000000000000000000000000000F0F0F0F09F
:10119000C0C00000000000000000000000000000CF
:1011A00000000000C0C0000000000000FFFFCFCF23
:1011B000CFCFFFFFF0F000000000000000000000B3
:1011C000000000000000000000000000FFFFFFFF23
:1011D000FFFFFFFF0303000000000000000000000D
:1011E000000000000C0C0000000000000F0F0303C3
:1011F00003030000000000000000000000000000E9
:101200000000000000000C0C0000000000000000C6
:1012100000000000000000000000000000000000CE
:1012200000000000000000000000000000000000BE
:1012300000000000000000000000000000000000AE
:10124000000000000000000000000000000000009E
:10125000000000000000000000000000000000008E
:10126000000000000000000000000000000000007E
:10127000000000000000000000000000000000006E
:10128000000000000000000000000000000000005E
:10129000000000000000000000000000000000004E
:1012A000000000000000000000000000000000003E
:1012B000000000000000000000000000000000002E
:1012C000000000000000000000000000000000001E
:1012D000000000000000000000000000000000000E
:1012E00000000000000000000000000000000000FE
:1012F00000000000000000000000000000000000EE
:1013000000000000000000000000000000000000DD
:1013100000000000000000000000000000000000CD
:1013200000000000000000000000000000000000BD
:1013300000000000000000000000000000000000AD
:10134000000000000000000000000000000000009D
:10135000000000000000000000000000000000008D
:10136000000000000000000000000000000000007D
:10137000000000000000000000000000000000006D
:10138000000000000000000000000000000000005D
:10139000000000000000000000000000000000004D
:1013A00000000000000000000000C0C000000000BD
:1013B00000000000000000000000303000000000CD
:1013C0000C0C000000000000FFFFFFFF0000000009
:1013D00003030000000000000C0CC0C0000000006F
:1013E00030303F3FC0C0FCFCFFFFFFFF00000000AB
:1013F00000000000000000000000000000000000ED
:101400000C0C0000000000000303030300000000B8
:1014100000000000000000000000000000000000CC
:1014200000000000000000000000000000000000BC
:1014300000000000000000000000000000000000AC
:10144000000000000000000000000000000000009C
:10145000000000000000000000000000000000008C
:10146000000000000000000000000000000000007C
:10147000000000000000000000000000000000006C
:10148000000000000000000000000000000000005C
:10149000000000000000000000000000000000004C
:1014A000000000000000000000000000000000003C
:1014B000000000000000000000000000000000002C
:1014C000000000000000000000000000000000001C
:1014D000000000000000000000000000000000000C
:1014E00000000000000000000000000000000000FC
:1014F00000000000000000000000000000000000EC
:1015000000000000000000000000000000000000DB
:1015100000000000000000000000000000000000CB
:1015200000000000000000000000000000000000BB
:1015300000000000000000000000000000000000AB
:10154000000000000000000000000000000000009B
:10155000000000000000000000000000000000008B
:10156000000000000000000000000000000000007B
:10157000000000000000000000000000000000006B
:10158000000000000000000000000000000000005B
:1015900000000000000000000000C0C0F0F0FCFCF3
:1015A000FFFFFFFFFFFFFFFFFCFCF0F0000000006B
:1015B00000000000030300000000FFFFFFFFFCFC31
:1015C000FCFCFFFFFFFFFCFCFCFCFFFF00003030D9
:1015D00000000000000030300F0F3F3F3F3FFFFF93
:1015E0003F3FFFFFFFFF3F3F3F3F0F0F0000000067
:1015F0000000000000000C0C0000030300000303C7
:101600000C0C0000000000000000000000000000C2
:1016100000000000000000000000000000000000CA
:1016200000000000000000000000000000000000BA
:1016300000000000000000000000000000000000AA
:10164000000000000000000000000000000000009A
:10165000000000000000000000000000000000008A
:10166000000000000000000000000000000000007A
:10167000000000000000000000000000000000006A
:10168000000000000000000000000000000000005A
:10169000000000000000000000000000000000004A
:1016A000000000000000000000000000000000003A
:1016B000000000000000000000000000000000002A
:1016C000000000000000000000000000000000001A
:1016D000000000000000000000000000000000000A
:1016E00000000000000000000000000000000000FA
:1016F00000000000000000000000000000000000EA
:1017000000000000000000000000000000000000D9
:1017100000000000000000000000000000000000C9
:1017200000000000000000000000000000000000B9
:1017300000000000000000000000000000000000A9
:101740000000000000000000000000000000000099
:101750000000000000000000000000000000000089
:101760000000000000000000000000000000000079
:101770000000000000000000000000000000000069
:101780000000000000000000000000000000000059
:1017900000000000C0C0F0F0FCFCFFFFFFFFFFFFF7
:1017A000FFFFFCFCF0F00000000000003030000003
:1017B00000000000FFFFFFFFFCFCF0F0FFFFFFFF59
:1017C000FCFCF0F0FFFF3F3F000000000C0C0C0C95
:1017D00030303F3FFFFFFFFFFFFFFFFFFFFFFFFF37
:1017E0003F3F3F3F0F0F00000000000003030000D9
:1017F0000C0C0000C0C00000030303030000000045
:1018000000000000000000000000000000000000D8
:1018100000000000000000000000000000000000C8
:1018200000000000000000000000000000000000B8
:1018300000000000000000000000000000000000A8
:101840000000000000000000000000000000000098
:101850000000000000000000000000000000000088
:101860000000000000000000000000000000000078
:101870000000000000000000000000000000000068
:101880000000000000000000000000000000000058
:101890000000000000000000000000000000000048
:1018A00000000000000000000000000020202020B8
:1018B0006162636465666768696A6B6C6D6E6F70A0
:1018C0007172737475767778797A3132333435364C
:1018D00037383930524542545F2D3D5B5D5C233BC8
:1018E00027602C2E2F2020202B0014001A00080027
:1018F00015001700E00004001600070009000A00A8
:10190000E1001D001B00060019000500000000009A
:101910000000E300215228002A00130012000C00EE
:1019200018001C00340033000F000E000D000B00E7
:1019300029003800370036001000110000000000B8
:101940000000E60022522C002B001E001F00200089
:1019500021002200E0000000000000000000000064
:10196000E100000000000000000000000000000096
:101970000000E300010028002A00270026002500BF
:1019800024002300000000004F00520051005000CE
:101990000000000000000000000000000000000047
:1019A0000000E60023522C002B001E021F02200222
:1019B00021022202E0000000000000000000000000
:1019C000E100000000000000000000000000000036
:1019D0000000E300235228002A00270226022502E5
:1019E000240223023500310030002F002E002D008C
:1019F0003502310230022F022E022D0200000000BB
:101A00000000E60001002C00007C2778287825786B
:101A10002678000020782378D200D900D100000079
:101A2000217824780000DA000000000000000000A7
:101A30000000E30001002800000000008100800099
:101A40007F00000000000000D000CD00CE00CF00DD
:101A50000000000000000000000000000000000086
:101A60000000E60001002C0000DA0281FFD9F1DB62
:101A700020A4A62EAF00A0C0D30000A1C8D30000B0
:101A8000AED580A81F408D14200000010101010186
:101A90000101010102020202020202020203030327
:101AA00003030303030404040404040405050505F7
:101AB00005060606060607070707070808080809B7
:101AC0000909090A0A0A0B0B0B0C0C0C0D0D0D0E63
:101AD0000E0E0F0F0F1010111111121213131414F8
:101AE000151516161717181819191A1A1B1B1C1D6D
:101AF0001D1E1E1F202021222223242425262627C6
:101B00002829292A2B2C2D2D2E2F303132323334F7
:101B100035363738393A3B3C3D3E3F4041424344FD
:101B200045464748494A4C4D4E4F505153545556DF
:101B300058595A5B5D5E5F616264656668696B6C8B
:101B40006D6F7072737577787A7B7D7E8082838506
:101B500087888A8C8E8F91939596989A9C9EA0A246
:101B6000A3A5A7A9ABADAFB1B3B5B7BABCBEC0C250
:101B7000C4C6C9CBCDCFD1D4D6D8DBDDDFE2E4E714
:101B8000E9EBEEF0F3F5F8FAFDFF00AF00AE05016A
:101B90000902A10185020901A1000509190129080D
:101BA00015002501950875018102050109300931EB
:101BB0001581257F95027508810609381581257FD5
:101BC000950175088106050C0A38021581257F9557
:101BD0000175088106C0C005010980A101850319AE
:101BE000012AB700150126B700950175108100C0C4
:101BF000050C0901A101850419012AA0021501267D
:101C0000A002950175108100C005010906A101859A
:101C100006050719E029E7150025019508750181DA
:101C2000020507190029EF1500250195F0750181BE
:101C3000020508190129059505750191029501759F
:101C4000039101C005010906A101050719E029E773
:101C5000150025019508750181029501750881011E
:101C60000507190029FF150026FF00950675088154
:101C70000005081901290595057501910295017561
:101C8000039101C009023B00020100A0FA0904000F
:101C90000001030101000921110100012240000798
:101CA0000581030800010904010001030000000987
:101CB000211101000122B600070582032000011254
:101CC000010002000000085346010001000102006B
:101CD000010C0343006F0072006E006500000010ED
:101CE0000366006F006F007300740061006E0000F7
:101CF00000040309040011241FBECFEFDAE0DEBFA9
:101D0000CDBF11E0A0E0B1E0EAE3F8E602C0059043
:101D10000D92A83AB107D9F725E0A8EAB1E001C0D1
:101D20001D92A13DB207E1F70E94862A0C94C733A9
:101D30000C940000982FE091C80340918F0357E066
:101D4000E41302C080E008952E2F30E05E9FF00182
:101D50001124E057FC4F8181681306C080819813DD
:101D600003C085818111EFCFF9013196E770E8CF8B
:101D7000FC01AC014C5F5F4F8FEF91E32191822713
:101D800028E030E087FF09C0880F892721503109FA
:101D9000C9F7E417F50791F70895880FF7CFE8ED35
:101DA000F0E080818E7F80831092E2001092DA0052
:101DB0001092E100A0EEB0E08C9181608C93808164
:101DC0008F77808319BCA7EDB0E08C918E7F8C93C8
:101DD00080818F7E80831092600308952091E400BB
:101DE0003091E50095E6A9012091EC00822F8170E9
:101DF00020FF06C08091E80080FF06C080E00895C3
:101E00002091E80022FD1AC080918503882389F083
:101E1000853089F08091EB0085FD0FC02091E400B2
:101E20003091E50042175307F9F29150E1F684E052
:101E3000089582E0089583E0089581E008958091F7
:101E4000870387FF13C08091E80082FF06C080915E
:101E5000E8008B778093E80004C0809185038111AE
:101E6000F2CF0895809185038823D9F38091E8000B
:101E700080FFF8CF8091E8008E77ECCF982F909379
:101E8000E900242F762F50E0891731F07091EC0093
:101E90002091ED005091F00021FD07C09F5F973029
:101EA00071F78093E90081E008953091EB003E7F67
:101EB0003093EB003091ED003D7F3093ED00309199
:101EC000EB0031603093EB007093EC002093ED0059
:101ED0005093F0002091EE0027FDE0CF80E00895C0
:101EE000B0E0A0E0E6E7FFE00C94DC32C8EDD0E023
:101EF00088818F7E8883E7EDF0E080818160808338
:101F000084E082BF81E08093600388818E7F888334
:101F100002EE10E0F80110821092DA0081EEC82E75
:101F2000D12CF601108288818F7788838881806820
:101F3000888388818F7D888319BC109285031092D5
:101F40008603109284031092830390EEE92EF12C05
:101F5000F70180818B7F808388818160888342E064
:101F600060E080E00E943E0FF60180818E7F8083DA
:101F7000F801808181608083808188608083F7019F
:101F800080818E7F8083888180618883CDB7DEB732
:101F9000E8E00C94F832FC01CB0120918D033091E4
:101FA0008E032617370790F0009729F42091E80058
:101FB0002E772093E80040E0009751F4411108C0CB
:101FC0008091E80082FF31C080E00895C901F3CF1D
:101FD000209185032223A9F12530A9F12091E80061
:101FE00023FD2DC02091E80022FDEACF2091E800DA
:101FF00020FFE2CF3091F3002091F200009719F01A
:102000002830310558F041E02830310509F040E032
:102010002091E8002E772093E800CECF41914093A5
:10202000F10001972F5F3F4FE9CF8091850388230F
:1020300041F0853041F08091E80083FFC1CF81E01D
:10204000089582E0089583E00895809162030895E1
:1020500087E797E7909301088093000888E19AE06A
:102060000FB6F894A895809360000FBE909360001F
:10207000FFCFA4E0B0E0EFE3F0E10C94E2328FB7E1
:10208000F89420915A0330915B0340915C03509186
:102090005D0329833A834B835C838FBF69817A8197
:1020A0008B819C812496E2E00C94FE329C0180910D
:1020B00036018823C9F080915E0387FF15C0E62FA3
:1020C000E695E695E695603FE0F4E20FF32FF11D0B
:1020D000677081E090E001C0880F6A95EAF780950B
:1020E0009281892382830895F9013296285F3F4FB8
:1020F0008191681303C0DF0111971C92E217F30767
:10210000B9F708959C01809136018823C1F0809130
:102110005E0387FF14C0E62FE695E695E695603FDF
:10212000F8F4E20FF32FF11D677021E030E001C0F9
:10213000220F6A95EAF78281822B82830895F90142
:1021400032968FEF90E04191641751F08F3F19F470
:10215000411101C0892F9F5F9630A9F78F3F09F485
:102160000895280F311D87FD3A95F901628308957E
:10217000A3E0B0E0EEEBF0E10C94E2329C01809140
:1021800057039091580382179307A1F03093580397
:1021900020935703E0915503F0915603309751F087
:1021A00084E089833B832A830680F781E02DCE017A
:1021B000019609952396E2E00C94FE32A3E0B0E08C
:1021C000E4EEF0E10C94E2329C0180915303909193
:1021D000540382179307A1F03093540320935303C1
:1021E000E0915503F0915603309751F083E08983D5
:1021F0003B832A830680F781E02DCE010196099565
:102200002396E2E00C94FE32CF93DF93B82FA92FF0
:102210009B018091CF059091D0058F5C9340AC01DC
:10222000460F571F4130524020F020E032E0281B7B
:10223000390B4091CD035091CE03EB2FFA2F280F8D
:10224000391FC1E0D0E08217930738F05093CE03D6
:102250004093CD03DF91CF9108956491DC01A153A8
:10226000BC4F7C91761781F06C93BC01A5E076950C
:102270006795AA95E1F7DE0102C0AA0FBB1F6A9518
:10228000E2F7BD014A2B572B01963196DCCFFA01BC
:10229000882311F009950895FB01FCCF8091450337
:1022A000982F9E7F71F480914503817082608093A6
:1022B000450380914803893718F088E780934803E5
:1022C0000895843080F7F5CF8091950280FD16C087
:1022D00081FD16C082FD16C0809194028823A1F072
:1022E000883280F428E0829FC001112468E270E007
:1022F0000E940933862F672B39F0089582E00895F4
:1023000084E0089588E0089581E008958091950221
:1023100080FD14C081FD14C082FD16C0809193021F
:10232000882381F08E3180F420E5829FC001112442
:102330006EE170E00E940933862F089584E10895CC
:1023400088E2089588E0089580E5089580E0089582
:10235000F894E82FE295EF70F0E041A18F7021E052
:1023600030E0B90102C0660F771F8A95E2F7CB0112
:10237000962F9095942391A392A1892B82A3789470
:10238000089590915E0392FF06C0282F287128308F
:10239000F9F4877F846093FF06C0282F28712831C5
:1023A000F1F4877E846120915F0320FF06C0382FFF
:1023B00038713830D9F4877F816021FF06C0282F1B
:1023C00028712831D1F4877E816194FD877E08953C
:1023D000282F24712430F9F68B7F8860DCCF282FDA
:1023E0002471243101F78B7E8861DDCF382F317164
:1023F000313019F78E7F8860E0CF282F217121318D
:1024000021F78E7E8861E1CF803E9105C1F1C8F44D
:102410008133910509F47DC048F48932910509F4AE
:102420006DC08A32910509F47BC008958933910506
:10243000D1F082389105B9F08533910509F459C07E
:102440000895843E9105C1F138F4823E910521F151
:10245000833E910531F10895863E9105C1F1873E95
:102460009105E1F1089520915E03237009F065C0A4
:1024700020915F0323FF14C089E290E0089520912A
:102480005E0320FD43C030915F0330FF09C024FF8D
:102490004EC090E080E0089520915E0322FDF7CFCA
:1024A000089520915E0322FD45C030915F0330FD09
:1024B00044C024FFF5CFEDCF20915F0321FFF0CF83
:1024C00080915E0384FDE5CF87EE90E00895209132
:1024D0005E0323FFE5CF24FDDCCFF6CF20915E0322
:1024E00023FD2EC030915F0331FFE3CF84EE90E0F7
:1024F000089520915E0325FFD3CFBECF20915E03C8
:1025000025FD21C020915F0323FFCACF89E390E01E
:10251000C7CF20915E0326FFC3CF8AE290E00895E3
:1025200020915E0326FFBCCF81E390E0089583EE07
:1025300090E0089582EE90E0089580EE90E0089596
:1025400086EE90E0089585E390E008957830B8F441
:102550006630A8F48430B0F4E62FF0E096E0799F7E
:10256000E00DF11D112490E3899FE00DF11D112470
:10257000EE0FFF1FE851F74E85919491089580E08A
:1025800090E0089581E0FCCF1F93CF93DF930E94EA
:102590000412EC018115924508F05FC0C11580E579
:1025A000D80708F0DDC0C03ED10538F5CD3CD105D7
:1025B00008F0AEC0C83AD10580F4C53AD10508F09C
:1025C000A4C0C130D10509F443C0CE010497813ABB
:1025D0009105F0F1D0E0C0E03BC0CE01885A9109EE
:1025E0004B97C0F7C85AD0E0CC0FDD1FC55ADE4F5D
:1025F0000990D881C02DD4642BC0C11590E4D907AF
:10260000F0F4C11520E2D20708F0C4C0C83ED105DD
:10261000F8F0CE019A9581159F41E0F68D2F0E942A
:10262000C111182FCE0199270E940412C12FD0E0AA
:10263000DC2FCC27CC27DF71C82BD92B09C0CE01CA
:1026400099270E940412CC27DF70C82BD92BD06A9F
:10265000CE01DF91CF911F910895C03882E5D80750
:10266000B8F5C03692E5D90708F05BC0C03422E562
:10267000D207C8F4C03282E5D80708F04BC02C2F2F
:102680002695269590E2299F900111248C2F837026
:10269000C1E0D0E002C0CC0FDD1F8A95E2F7C22B6B
:1026A000D32BDD68D5CF2C2F26952695277080E279
:1026B000289F900111248C2F8370C1E0D0E002C0CC
:1026C000CC0FDD1F8A95E2F7C22BD32BDC68C0CF7D
:1026D000C03C92E5D90760F48C2F8F71C03AD24587
:1026E000A8F5C82FD0E0DC2FCC27C46FD06AB0CFBC
:1026F000CE01805C9245809708F06CCFDC2FCC2710
:10270000CC27DF71C06FD06AA3CFA497D064A0CFCD
:10271000D0659ECFCF71D0E0DC2FCC27C16FD06ABF
:1027200097CF2C2F26952695277080E2289F900121
:1027300011248C2F8370C1E0D0E002C0CC0FDD1FCC
:102740008A95E2F7C22BD32BDA6882CF0E94C1119F
:10275000C82FD0E0DC2FCC27CC27DF71D06278CF18
:102760008C2F8F710E94C11155E0D695C7955A954F
:10277000E1F7CF70D0E0DC2FCC27282F30E084FFAA
:1027800005C044E0220F331F4A95E1F7C22BD32B3B
:10279000D0695ECF8D2F8F710E94C111182FCE018D
:1027A00099270E940412C12FD0E0DC2FCC27CC2720
:1027B000DF71C82BD92BD2CF982F909580910E0224
:1027C000892380930E0208958091C80390918F030E
:1027D000981301C008958F5F8770FACFB0E0A0E032
:1027E000E4EFF3E10C94DB328C01E0906802F090AE
:1027F000690280910F0290911002E82AF92ACFE035
:10280000D0E0CC24C394D12CBC2EC6010C2E02C027
:10281000880F991F0A94E2F78E219F21892B49F492
:10282000219790F7B12C8B2DCDB7DEB7E9E00C9452
:10283000F732B8018C2F0E94A6120E94C412019791
:1028400079F3F1CFCF93DF93D82FC92F0E94EE13E6
:102850006D2F7C2F0E94A6120E94C412DF91CF918F
:102860000895983078F5863068F5E82FF0E086E036
:10287000989FE00DF11D11249E2F977083E0F6952F
:10288000E7958A95E1F7EE0FFF1FEE0FFF1FE45368
:10289000FE4F50E040E080E0219130E0092E02C080
:1028A000369527950A94E2F721703327042E01C04C
:1028B000220F0A94EAF7822B4F5F5F4F4430510595
:1028C00059F7089580E00895983098F5863088F596
:1028D000E82FF0E086E0989FE00DF11D11248E2F87
:1028E000877041E001C0440F8A95EAF783E0F695CE
:1028F000E7958A95E1F7EE0FFF1FEE0FFF1FE453F8
:10290000FE4F30E020E070E05191DF011197CB01E4
:10291000022E02C0969587950A94E2F78170819500
:102920008527842385278C932F5F3F4F24303105E3
:1029300059F708959093690280936802089521E001
:1029400030E002C0220F331F8A95E2F720953095C0
:102950008091680290916902822393230E949A14C5
:1029600008959091EB01809589238093EB01282FA6
:10297000277069F4891759F090915F0392FF07C09F
:102980008695869586950E949F141092EB01089576
:1029900021E030E002C0220F331F8A95E2F78091D8
:1029A000680290916902822B932B0E949A140895D9
:1029B0009093100280930F020895FC018481882374
:1029C000A1F0808191810E942214282F92959F70FE
:1029D000963091F060F4925F9F70923030F481E015
:1029E000203F81F030F4283E30F080E004C09A5F50
:1029F000F3CF243FD1F7089581E0283E20F0213F16
:102A0000A1F7F9CF089508959C01892F9927009780
:102A1000E9F09C0188E0A90174E0569547957A9504
:102A2000E1F74115510511F08C5F9A01A901569506
:102A30004795569547954115510511F08E5F9A01BE
:102A400036952795232B09F08F5F089580E0E3CF1B
:102A5000A6E0B0E0EEE2F5E10C94E13249835A835E
:102A6000392F89819A81332399F0222389F00E949A
:102A7000EE13182F682F89819A810E94641469814E
:102A80007A81812F0E94A6122696E3E00C94FD32F3
:102A90000E943114182FF3CF80910E0290910D02F5
:102AA000892B8093AA0190910C029923A1F0892B84
:102AB0008093AA01809136018823E1F180915E0321
:102AC00087FF38C08EE1ECEAF1E090E08150A0F59C
:102AD000911110920C0240E250E06CEE71E08AEA33
:102AE00091E00E945933892B21F180E2EAEAF1E07A
:102AF000ACEEB1E001900D928A95E1F7E0915503BB
:102B0000F09156033097A9F080913601882359F04F
:102B100080915E0387FF07C08091AA018093AB017B
:102B200086E08093AA010280F381E02D8AEA91E099
:102B30000995089586E0C7CF2191222339F29F5F3E
:102B4000C5CF882321F00E94DC130E944C15089504
:102B5000882339F090910E02892B80930E020E94F7
:102B60004C1508950F931F93CF93DF938B01EA01C8
:102B700090918503943061F58093E9008FEF9091F7
:102B8000E800815095FD06C095ED9A95F1F700009B
:102B90008111F5CF8091E80085FF1AC00E94EE0EEA
:102BA000811111C08091E80085FD06C08091E80088
:102BB0008E778093E800F2CFF80181918F018093A6
:102BC000F100219779F78091E8008E778093E800F3
:102BD000DF91CF911F910F910895BC0143E050E028
:102BE00082E00E94B2150895BC0146E050E082E008
:102BF0000E94B2150895CF93DF93D82FC92F8091EB
:102C00003601811113C048E050E06D2F792F81E02B
:102C10000E94B21580E2ED2FFC2FA3E6B3E00190F5
:102C20000D928A95E1F7DF91CF91089580915E032F
:102C300087FF06C040E282E050E06D2F7C2FE8CF96
:102C400048E081E0F9CF609132018091450380FF37
:102C500020C08091310143E0849FC00111248D5533
:102C60009D4F539A2BB1277F3BB138605FB7F894E3
:102C7000FC01649FE00DF11D1124BF016817790765
:102C8000D1F45FBF8FE594E00197F1F700C0000039
:102C90000895809133019091340123E0829FF001E7
:102CA0001124ED55FD4F8917A0F611821082128272
:102CB0008F5F3396F8CFFC014191CF01E8E03BB93B
:102CC000000000C047FF2BB9440F000000C000C047
:102CD00000C02BB900C0EA9591F7D0CFB0E0A0E0DA
:102CE000E4E7F6E10C94DA32F82EE92ED62EC72E60
:102CF0008A0180914202AA24A394B12C8A3018F44C
:102D00008AE0A82EB12CC1E0D0E06D2D7C2D8F2D56
:102D10009E2DF8010995811104C02196AC16BD06BF
:102D20002CF4CDB7DEB7EAE00C94F632CC9F9001DC
:102D3000CD9F300D300D112490E080E045E34A95A1
:102D4000F1F70000019682179307C1F7DECF80915B
:102D50001D02811110C08091D80080618093D8003D
:102D60008AE18A95F1F700C08091D90080FF0AC0FE
:102D700081E080931D0281E090911D02913009F065
:102D800080E0089582E080931D020E94CF0E109291
:102D90008503F1CF0E94A716882359F0E0915503CF
:102DA000F0915603309729F00190F081E02D0995BC
:102DB000089580E00895A4E0B0E0E1EEF6E10C941F
:102DC000E2320E94A716882371F00E9439106983AD
:102DD0007A838B839C8369817A818B819C81249601
:102DE000E2E00C94FE320E94391069837A838B836F
:102DF0009C838091430290914402A0914502B0913E
:102E0000460229813A814B815C81280F391F4A1F74
:102E10005B1F29833A834B835C83DDCFB0E0A0E066
:102E2000E4E1F7E10C94DC326C017B0164E670E0D4
:102E300088E70E940B30EC018601EC0CFD1CD7FDED
:102E40000CC0F801849164E670E00E947B30EC01D4
:102E50000F5F1F4F0E151F0591F70E94FD3081E097
:102E6000CD2B09F080E0CDB7DEB7E8E00C94F83266
:102E70008091510390915203911103C091E08927F1
:102E80000895882369F062E070E08CE89BE10E947D
:102E90000E17811103C080915103089510925103C0
:102EA00080915103EBCFA5E0B0E0E9E5F7E10C94A8
:102EB000E232809151038D83809152038823F1F097
:102EC0000E943910DC01CB01805A9541AF4FBF4FB2
:102ED00080934D0390934E03A0934F03B093500300
:102EE0008D81811108C062E070E08AE89BE10E9458
:102EF0000E17811108C0809151038D838D81259615
:102F0000E2E00C94FE3281E080935103F4CFB0E014
:102F1000A0E0EDE8F7E10C94D83249015A018B01A9
:102F2000D82FC92F0E944E1164017501A401B5016B
:102F300088E090E00E94A5339401A501B8018D2F8F
:102F40009C2F00E20E943E33622F84E290E00E94B8
:102F50009333CDB7DEB7ECE00C94F432B0E0A0E0F0
:102F6000E4EBF7E10C94D832182FC62FD42F922E11
:102F70000091450300FF50C080914603811308C0B3
:102F800080914703861304C080914803841729F079
:102F90008091A20282608093A202E02FE695F0E089
:102FA000EB55FE4F80818093A002802F8E7F823070
:102FB000E9F4ED2FD93708F0E8E7F0E0E657F54EF1
:102FC000C1112FC0F4918F2EEF2F00FF0FC0809101
:102FD00033019091340123E0829FD0011124AD553B
:102FE000BD4F891708F48FC00E9423161093460323
:102FF000C0934703D0934803992071F02091450373
:103000006091490370914A03312FAE0180914B03C7
:1030100090914C030E948717CDB7DEB7ECE00C947B
:10302000F432EC2EF12CE49126E0129F6001112481
:103030002FEF30E0C601B9010E94BE32812F90E02F
:10304000880F991FF5E5F69FA001F79F500D1124F9
:10305000841B950BB82EBB0CB80EA9014E195F0945
:10306000E49FC001E59F900D1124F92FCB9DA00195
:103070001124452F5527D901A41BB50BEA9FA001A8
:10308000EB9F500D1124852ED901AB19B1095D01BB
:10309000AE9CD001AF9CB00DBE9CB00D1124AB2FE7
:1030A000BB272A1B3B0BE29FD001E39FB00D1124ED
:1030B00063307105D1F02CEFC21623E0D20670F414
:1030C00061307105B1F062307105B9F02FEFC216B1
:1030D000D10408F07ACF892EFB2F77CF64307105A9
:1030E00079F066307105B9F370CFF52F8E2EE92F88
:1030F0006CCFFE2FE52F892E68CF8B2EFE2FF7CFBA
:103100008E2EEB2F62CF1196EC931197FC931296B3
:103110008C9212978F5F139664CFE5E4F3E04381BE
:1031200021E1421B08F440E021E0628181810E949C
:10313000AE170895E5E4F3E0438121E1420F08F47E
:103140004FEF21E0628181810E94AE170895E5E48E
:10315000F3E0628121E1621B08F460E021E0438139
:1031600081810E94AE170895E5E4F3E0628121E1D8
:10317000620F08F46FEF21E0438181810E94AE1756
:103180000895E5E4F3E0818121E043816281885084
:103190000E94AE170895E5E4F3E0818121E04381C8
:1031A0006281885F0E94AE17089580914903882349
:1031B00019F08150809349032091450330914603D3
:1031C00040914703509148036091490370914A032D
:1031D00080914B0390914C030E9487170895809132
:1031E0004903833018F48F5F80934903209145038E
:1031F0003091460340914703509148036091490341
:1032000070914A0380914B0390914C030E94871761
:1032100008952091450320FF24C02170226020934F
:1032200045038091A20281608093A202662381F00F
:103230003091460340914703509148036091490300
:1032400070914A0380914B0390914C030E94871721
:1032500020E04091480360914703809146030E941B
:10326000AE1708959091450396958FEF890F913091
:1032700009F481E061E00E940919089561E081E0AC
:103280000E9409190895E5E4F3E083E08083118248
:103290008FEF828388E783831482A0EAB2E01296DC
:1032A0008C911297836012968C93758123E030E0A5
:1032B0004FEF58E760E0868197810E948717089555
:1032C00090915F0392FB222720F9281779F080FB69
:1032D00092F990935F0360915E0370915F0384E0C5
:1032E00090E00E94B13382E00E94B1140895A8E0FA
:1032F000B0E0EDE7F9E10C94E13240912602509103
:10330000270260912802709129022FB7F8948091CA
:103310005A0390915B03A0915C03B0915D032FBFB2
:10332000841B950BA60BB70B11E084369105A10504
:10333000B10578F10E94DB16DC01CB010296A11DDC
:10334000B11D89839A83AB83BC83809111019091D5
:103350001201865D9D4F20911001422F50E02530D3
:1033600010F044E050E0BE016F5F7F4F0E94663373
:1033700082E090E00E944832182F882351F00E948A
:10338000391060932602709327028093280290934D
:103390002902812F2896E3E00C94FD32ABE0B0E0E7
:1033A000E4EDF9E10C94E23288E0E5E4F3E0DE01DB
:1033B000119601900D928A95E1F78091A00290916B
:1033C000A102A091A20289879A87AB872B854091A1
:1033D0003E0250913F0260914002709141023FB71E
:1033E000F89480915A0390915B03A0915C03B09193
:1033F0005D033FBF841B950BA60BB70B843691056D
:10340000A105B10510F4222319F1809119019091C1
:103410001A01865D9D4F20911801422F50E02C30FB
:1034200010F04BE050E0BE016F5F7F4F0E946633AB
:1034300083E090E00E944832882369F00E943910AE
:1034400060933E0270933F0280934002909341024A
:103450001092A20281E02B96E2E00C94FE32EF92F1
:10346000FF921F93CF93DF9300D000D00F92CDB780
:10347000DEB77B0190E080E00E944832182F88235D
:1034800009F487C080910301482F50E0882311F090
:1034900041E050E06091040170910501665D7D4F4F
:1034A000CE0105960E94663340912202509123027C
:1034B00060912402709125022FB7F89480915A03ED
:1034C00090915B03A0915C03B0915D032FBF841BBF
:1034D000950BA60BB70B84369105A105B10540F4F9
:1034E0008BE292E00E94B80E9D81891709F451C0C9
:1034F00081E090E00E94483281111AC010E0809172
:103500001E0290911F02A0912002B0912102F701AA
:1035100080839183A283B383812F0F900F900F90AC
:103520000F900F90DF91CF911F91FF90EF90089532
:1035300080910B01482F50E0853010F044E050E0BE
:1035400060910C0170910D01665D7D4FCE01019679
:103550000E9466338BE292E00E94B80E9D8189132F
:10356000CDCF0E9439106093220270932302809382
:1035700024029093250289819A81AB81BC8180933A
:103580001E0290931F02A0932002B093210211E02B
:10359000B6CF80912B0290912C02A0912D02B09178
:1035A0002E0289839A83AB83BC831111E4CFA7CF0A
:1035B000A8E0B0E0EEEDFAE10C94E23266EE7EEFC8
:1035C00090E080E00E94B13360E082E090E00E94F1
:1035D000933360E083E090E00E94933310921002F6
:1035E00010920F0260E074E184E090E00E94B13339
:1035F00060E086E090E00E9493336FEF87E090E018
:103600000E94933340E050E0BA0188E090E00E94CD
:10361000A53360E084E290E00E94933360E087E1AC
:1036200090E00E94933360E08CE090E00E9493333E
:1036300060E08DE090E00E94933319821A821B8231
:103640001C821D821E821F82188648E050E068E1BD
:1036500070E0CE0101960E94833340E050E0BA0151
:1036600080E290E00E94A53340E050E0BA018FE094
:1036700090E00E94A53340E050E0BA0183E190E081
:103680000E94A5332896E2E00C94FE321F920F921E
:103690000FB60F9211242F933F934F935F936F9325
:1036A0007F938F939F93AF93BF93EF93FF938091FB
:1036B000E10082FF09C08091E20082FF05C0809195
:1036C000E1008B7F8093E1008091DA0080FF24C0CD
:1036D0008091D80080FF20C08091DA008E7F809397
:1036E000DA008091D90080FF9BC080E189BD82E132
:1036F00089BD09B400FEFDCF81E0809385038091F0
:103700006003811109C00E94CF0E0E94700F80914A
:10371000E20084608093E2008091E10080FF17C0A6
:103720008091E20080FF13C08091E2008E7F809341
:10373000E2008091E20080618093E2008091D800F5
:1037400080628093D80019BC85E0809385038091C6
:10375000E10084FF29C08091E20084FF25C080E160
:1037600089BD82E189BD09B400FEFDCF8091D800FA
:103770008F7D8093D8008091E1008F7E8093E1005F
:103780008091E2008F7E8093E2008091E200816070
:103790008093E20080918603882309F447C084E087
:1037A00080938503809185038091E10083FF27C08A
:1037B0008091E20083FF23C08091E100877F8093A6
:1037C000E10082E080938503109286038091E100FE
:1037D0008E7F8093E1008091E2008E7F8093E200F3
:1037E0008091E20080618093E20042E060E080E04E
:1037F0000E943E0F8091F00088608093F000FF915E
:10380000EF91BF91AF919F918F917F916F915F9158
:103810004F913F912F910F900FBE0F901F901895D1
:1038200019BC109285031092600376CF8091E3005B
:1038300087FD02C081E0B4CF83E0B2CF78941F92BD
:103840001FB61F9211248F939F93AF93BF938091C4
:103850005A0390915B03A0915C03B0915D030196C4
:10386000A11DB11D80935A0390935B03A0935C0349
:10387000B0935D03BF91AF919F918F911F901FBE39
:103880001F9018959C014FB7F89480915A0390911E
:103890005B03A0915C03B0915D034FBF821B930B50
:1038A00008952FB7F89480915A0390915B03A091EB
:1038B0005C03B0915D032FBF08950E94511C2091BD
:1038C0009C0230919D02232B21F0809398029093CB
:1038D000990220919E0230919F02232B21F0809328
:1038E000960290939702E0915503F091560330971A
:1038F00049F082E080939A020480F581E02D8AE904
:1039000092E00995089510920E0280913601ECEA3A
:10391000F1E0882329F180915E0387FF21C08EE1C9
:10392000DF011D928A95E9F790E080E00E94DE10A9
:1039300090E080E00E94B81010920D020E944C1599
:1039400086E0EAE9F2E0DF011D928A95E9F710923C
:10395000930210929402109295020E945D1C0895A9
:1039600086E0DECFAAE2B0E0E8EBFCE10C94E132C5
:1039700087E893E0FC0101962091F100208323E089
:103980008F389207B9F780918803893009F456C0BF
:10399000C8F4823009F4B2C0833009F481C08130A8
:1039A00071F18091E80083FF7CC280918703909140
:1039B00088039A3008F075C2E92FF0E0E753FC4C19
:1039C0000C941D338A3009F488C08B3051F78091F4
:1039D0008703813231F780918B0390918C03892B7F
:1039E00001F78091E800877F8093E8000E941F0F15
:1039F00080918903809336010E94831CD2CF8091ED
:103A00008703813A71F68091E800877F8093E80010
:103A100080918B0390918C03892B61F460E283E6A3
:103A200093E070E00E94CB0F8091E8008B77809349
:103A3000E800B7CF60E090E080E0F3CF80918703AB
:103A4000813209F0AECF80918B0390918C03029765
:103A500008F0A7CF8091E800877F8093E8008091ED
:103A6000E80082FF18C09091F3008091F200029765
:103A700031F48091F100813011F0863021F4809191
:103A8000F100809362038091E8008B778093E800D7
:103A90000E941F0F86CF809185038111E0CF81CFD7
:103AA00080918703813A09F07CCF80918B039091BC
:103AB0008C03892B09F075CF8091E800877F809374
:103AC000E8008091E80080FFFCCF80913601809370
:103AD000F1008091E8008E77D9CF80918703813201
:103AE00009F05FCF8091E800877F8093E8000E9413
:103AF0001F0F80918A038093610353CF80918703C6
:103B0000813A09F04ECF8091E800877F8093E800EA
:103B10008091E80080FFFCCF80916103D8CF80388E
:103B200099F0823809F0BDC180918B038F70873086
:103B300008F0B7C18093E9008091EB0085FB8827EE
:103B400080F91092E90006C080918303909184036C
:103B5000911182609091E800977F9093E8008093A4
:103B6000F1001092F1008091E8008E7796C18823D1
:103B700009F484C1823009F094C1809189038111D4
:103B800087C180918B038F702FEF280F263008F0AC
:103B900088C18093E9002091EB0020FF79C1933028
:103BA00031F48091EB0080628093EB0071C19091C1
:103BB000EB0090619093EB0021E030E001C0220F18
:103BC0008A95EAF72093EA001092EA008091EB00D0
:103BD0008860EACF811165C1109189031F778091B8
:103BE000E3008078812B8093E3008091E800877F59
:103BF0008093E8000E941F0F8091E80080FFFCCFB7
:103C00008091E30080688093E30082E0111183E0FB
:103C10008093850346C18058823008F042C14091AC
:103C2000890350918A034C3D83E05807A1F583E056
:103C30008A838AE289834FB7F894DE01139620E0E5
:103C40003EE051E2E32FF0E050935700E49120FF73
:103C500003C0E295EF703F5FEF708E2F90E0EA3087
:103C6000C0F0C7968D939D932F5F243159F74FBFB6
:103C70008091E800877F8093E8006AE270E0CE01DF
:103C800001960E94CB0F8091E8008B778093E8002B
:103C900008C1C096E7CF20918B0330918C03852F0C
:103CA00099278330910509F160F48130910509F479
:103CB00072C0029709F0F5C08BE390E0E4E8FCE104
:103CC00029C08132910509F45AC0829709F0E9C0F0
:103CD0002115310509F469C02130310509F0E1C031
:103CE00086EB90E0EEE8FBE115C0CA019927413070
:103CF000B1F18230910509F43AC0892B09F0D1C0A5
:103D0000E1EFFCE1E4918E2F90E0E1EFFCE1009720
:103D100009F4C7C02091E800277F2093E800209194
:103D20008D0330918E038217930708F49C0140E0C5
:103D30002115310509F03EC041113CC08091E800D9
:103D400082FDA1CF80918503882309F49CCF853023
:103D500009F499CF8091E80083FFF0CF94CFEFED85
:103D6000FCE1E4918E2F90E0EFEDFCE1D0CFE1EDAE
:103D7000FCE1E4918E2F90E0E1EDFCE1C8CF21154C
:103D8000310571F02130310509F08BC089E090E0F8
:103D9000EFEAFCE1BFCF82E190E0EFEBFCE1BACFCC
:103DA00089E090E0E6E9FCE1B5CF80E490E0E4E46E
:103DB000FCE1B0CF80918503882309F464CF85307E
:103DC00009F461CF8091E80083FD5DCF8091E80028
:103DD00082FDB4CF8091E80080FFAACF9091F300DC
:103DE0008091F2002115310519F08830910550F0CD
:103DF00041E0089709F040E08091E8008E778093D9
:103E0000E80096CF44914093F1003196215031095A
:103E10000196E8CF803809F044C08091E800877FA0
:103E20008093E800809186038093F1009CCE8111FD
:103E300038C0109189031230A0F58091E800877F87
:103E40008093E800109386030E941F0F112311F046
:103E500084E005C08091E30087FDFACF81E0809384
:103E6000850342E061EC81E00E943E0F42E261EC9A
:103E700082E00E943E0F8091850313C080918903E8
:103E8000813079F481E0933009F080E080938403FD
:103E90001092E9008091E800877F8093E8000E94FB
:103EA0001F0F8091E80083FF0AC08091E800877FA0
:103EB0008093E8008091EB0080628093EB00AA96EB
:103EC000E3E00C94FD321F920F920FB60F92112473
:103ED0002F933F934F935F936F937F938F939F9312
:103EE000AF93BF93CF93DF93EF93FF93D091E9000C
:103EF000DF708091EC00C82FC17080FDC0E8109287
:103F0000E9008091F000877F8093F00078940E9410
:103F1000B21C1092E9008091F00088608093F0005C
:103F2000CD2BCF70C093E900FF91EF91DF91CF913E
:103F3000BF91AF919F918F917F916F915F914F91C1
:103F40003F912F910F900FBE0F901F9018950E94D8
:103F5000831C2FEF84E39CE0215080409040E1F7E8
:103F600000C0000088E19AE00FB6F894A89580930D
:103F700060000FBE90936000FFCF662309F45DC020
:103F80008D3C41F40E948611819580939D020E9490
:103F90005D1C08958E3C19F40E948611F6CF8F3C6B
:103FA00031F40E948611819580939C02F0CF803D70
:103FB00019F40E948611F8CF893D29F40E946411FA
:103FC00080939E02E4CF8A3D21F40E946411819582
:103FD000F7CF8B3D31F40E946411819580939F024D
:103FE000D6CF8C3D19F40E946411F8CF9FE2980F50
:103FF000983070F4815D990B21E030E001C0220F10
:104000008A95EAF780919B02822B80939B02BFCF17
:104010008D3D31F480919502816080939502B7CFF8
:104020008E3D21F4809195028260F7CF8F3D09F09B
:10403000AECF809195028460F0CF40919C028D3C80
:1040400059F480919D0287FF0DC010929D0241118D
:104050000BC01092930208C08E3C81F480919D02A7
:1040600018169CF3442381F080919E0290919F0248
:10407000892B09F08CCF1092940289CF8F3C49F4A0
:1040800047FFF0CF10929C0280919D028111ECCFEE
:10409000E0CF803D19F41416ACF3E4CF90919E026A
:1040A000893D29F41916F4F610929E02DBCF8A3D61
:1040B00019F497FFD7CFF8CF90919F028B3D29F449
:1040C00097FFD0CF10929F02CDCF8C3D19F41916D7
:1040D000CCF3C8CF9FE2980F983090F4815D990B94
:1040E00021E030E0B90102C0660F771F8A95E2F740
:1040F000CB01809590919B02892380939B02B2CF44
:104100008D3D31F4809195028E7F80939502AACFE8
:104110008E3D21F4809195028D7FF7CF8F3D09F080
:10412000A1CF809195028B7FF0CF882399F19CEFEE
:10413000980F913A40F4682F8AEA91E00E94561055
:104140000E944C15089590E2980F983050F48770B3
:1041500091E001C0990F8A95EAF7892F0E94DC133C
:10416000EFCF9BE5980F933028F490E080E00E9419
:10417000DE10089598E5980F9B3128F490E080E0D8
:104180000E94B810089593E3980F933118F460E0FB
:104190000E94BD1F0895CF93C82F8823D1F18CEFC3
:1041A0008C0F813AC0F580913601882311F18091FE
:1041B0005E0387FF1EC0EC2FE695E695E695F0E0DE
:1041C000E655FE4F828190E04C2F477021E030E0B1
:1041D00002C0220F331F4A95E2F782239323892BD3
:1041E00089F06C2F8AEA91E00E9456100E944C15CB
:1041F00009C0ECEAF1E08191C81799F321E0E23BB4
:10420000F207C9F76C2F8AEA91E00E9482100E949F
:104210004C15CF91089580E28C0F883068F4C770F8
:1042200021E030E001C0220FCA95EAF780910E022A
:10423000822B80930E02EBCF8BE58C0F833038F40A
:104240002C2F2452330BC9010E94DE10E2CFE8E587
:10425000EC0FEB3150F4F0E0EE0FFF1FE55AFE4F8C
:10426000808191810E94B810D4CF83E38C0F833179
:1042700080F661E08C2F0E94BD1FCBCFFF920F9381
:104280001F93CF93DF93C62FD42F122FFC0185816C
:104290008823A9F06093CB030E94511C9093CA031A
:1042A0008093C903C77081E001C0880FCA95EAF7FF
:1042B0000E94A815CDB7DEB7E5E00C94FB328091E3
:1042C000CB03681333C08091C9039091CA030E9445
:1042D000421C883C910550F500E20D0FCD17A9F066
:1042E000C770FF24F3948F2D01C0880FCA95EAF799
:1042F0000E94A115083048F48D2F877001C0FF0C73
:104300008A95EAF78F2D0E94A815812F0E94CB2055
:10431000812F0E949520083068F6D77081E001C097
:10432000880FDA95EAF70E94A115C4CFC77081E023
:1043300001C0880FCA95EAF7F6CFB0E0A0E0E3EA43
:10434000F1E20C94D9328C01FC018481882309F4B8
:1043500068C021E0408151816281738195810E9412
:104360002815EC01F8019581992309F461C480E2D4
:1043700080932901D0936B02C0936A029E01305250
:104380002115304238F4F8018681807F09F465C038
:10439000FE010AC09E0130542115304100F5F8019C
:1043A0008681807FFE0109F0FF27ED33F10560F47F
:1043B000E455F74EE491E0932901F801818180935F
:1043C0006D02808180936C02FE01E851FC47E7306A
:1043D000F10508F042C0ED52FC4C0C941D339E01D7
:1043E0003A9521153F41A0F29E01205A32452032D4
:1043F000310550F3FE01D9CF26E241EE61EEC8014E
:104400000E943E218091EB01877059F0F80185816F
:10441000882339F080915F0382FF03C082E00E940D
:10442000B114CDB7DEB7EBE00C94F53227E245EEE0
:1044300065EEE5CF26E241EE60EEE1CF27E245EE04
:1044400064EEDDCF26E241EE62EED9CF27E245EE03
:1044500066EED5CF28E241E0EBCF1092CB039E0170
:1044600030572332310508F0FDC384E090E00E940C
:104470007D3390935F0380935E03FE01E150F0472C
:10448000E232F10520F4E652FC4C0C941D3380918D
:104490005E03816080935E0360915E0370915F03B1
:1044A00084E090E00E94B1330E94831CABCF8091E6
:1044B0005F03886080935F03EFCF80915E0382602B
:1044C000E9CF80915E038460E5CF80915E038860D0
:1044D000E1CF80915F038160EDCF80915F038260C7
:1044E000E9CF80915E038061D5CF80915E038062C9
:1044F000D1CF80915E038064CDCF0E94831C8091D8
:104500005E038068C7CF80915E038C60C3CF8091CB
:104510005F038360CFCF80915E038E7FBBCF80919E
:104520005F03877FC7CF80915E038D7FB3CF80917C
:104530005E038B7FAFCF80915E03877FABCF80918F
:104540005F038E7FB7CF80915F038D7FB3CF809164
:104550005E038F7E9FCF80915E038F7D9BCF809186
:104560005E038F7B97CF0E94831C80915E038F77C1
:1045700091CF80915E03837F8DCF80915F038C7F8D
:1045800099CF80915E0382FB992790F921E09227D1
:1045900090FB82F990FB83F97DCF80915F03982F88
:1045A000909591708E7F892B90FB81F983CF9091AC
:1045B0005E03892F8F7B96FF80646CCF0E94831CE3
:1045C00090915E03892F97FB87F9805863CF61E054
:1045D0008EE090E00E9493335FCF60E0F9CF90913E
:1045E0005E03892F8F7E94FF806154CF90915E038C
:1045F000892F8E7F90FF81604DCF90915F03892F2F
:10460000877F93FF886056CF8091CA0169E281114C
:1046100065E38AEA91E00E94561038C3992309F4B1
:1046200013C3CA352CE7D20709F4E4C008F0BBC0B5
:10463000C1309CE7D90709F4DBC0C330ECE7DE07E3
:1046400009F4D0C0C115DC4709F4BFC0F801858169
:10465000E080F180882309F4D1C0C7010E94EE13E5
:10466000C82F682FC7010E946414B7018C2F0E94C5
:10467000A6120E94C412D82FC92F982EF801B58017
:10468000A680A2942FE0A2228091EB018770F1F026
:10469000EB2CBB20E1F0892F807F803451F080E249
:1046A0008D0F883098F0A11004C0892F807E803251
:1046B00069F080915F0382FF09C082E00E94B1141B
:1046C0008091EB018770EE24E3948111E12C8C2F13
:1046D00082958F70C82ED12C8C3008F0F4C0F60172
:1046E000E450FC4C0C941D338091450380FF1CC0AA
:1046F000282F2E7F20934503309146034091470396
:10470000509148036091490370914A0380914B0393
:1047100090914C030E9487178091A2028160809340
:10472000A2020E9423166ECE81608093450361E051
:1047300086950E94091966CE42E359E16EE379E15C
:104740000E9447115FCE4EE359E162E379E1F8CF71
:1047500041EC58E16BEC78E1F3CF4BEC58E161ECC4
:1047600078E1EECF47EA58E164EB78E1E9CF44EB3A
:1047700058E167EA78E1E4CF4DE858E16AE978E189
:10478000DFCF4AE958E16DE878E1DACF45ED58E14D
:104790006FEE78E1D5CF4FEE58E165ED78E1D0CFFF
:1047A00061E081E0C6CFCB352CE7D20729F1CC35CB
:1047B000DC4709F04BCF80915F0382FB882780F9AB
:1047C00091E089270E94601941CF0E94831C9FEFCE
:1047D000E4E3FCE09150E040F040E1F700C000006D
:1047E0000E9428106FEF7FEF90E080E00E94B133CD
:1047F0000E94A71F81E0E6CF80E0E4CFC7010E94BE
:104800003114C82F32CFFC2FFF70FF2EC07F19F05C
:10481000F29490EFF9228D2FBB20B9F0FF2069F0C0
:1048200090E29D0F983010F0D11109C080910E02D6
:10483000F82AF0920E020E944C158D2F42C08091F2
:104840000D02F82AF0920D02F6CF0E949520FF206B
:10485000D1F1D05ED83010F0911004C08F2D0E949D
:10486000DC1306C0F09480910D02F822F0920D0244
:104870000E944C1528C02C2F2F70F22EC07FC03202
:1048800019F0F29480EFF822992059F091E09916EE
:1048900009F47AC0BB2009F486C0AA2009F448C0F4
:1048A000CCCF80915F0382FD3FC0BB20B9F1FF20D8
:1048B00039F080910E02F82AF0920E020E944C15F7
:1048C00080E00E94CB20E8E0CE1AD108F4E0CF16B9
:1048D000D10410F40E94CA16EE20A9F08091EB01D9
:1048E00080FD11C0F80115828695869586950E94F7
:1048F000C814C8010E949D218091EB018695869580
:1049000086950E949F1420E0F801408151816281C8
:104910007381848195810E94281583CD80E00E9457
:104920009520FF2081F29ACFBB20A1F0A11004C0F6
:104930008F2D0E94A815C7CFE1E0AE12C4CF8091A1
:104940000C029F2D9823F91609F4BDCFF82AF09296
:104950000C02B9CFA110B7CF8F2D0E94A115909155
:104960000C028F2D892329F08F2D80958923809328
:104970000C028091CB019F2D982309F4A4CFF094D1
:10498000F822F092CB019FCFBB2029F0F5E0FA1579
:1049900008F499CFCDCF24E02A1508F494CF8F2DB9
:1049A0000E94A11590CFAA20D1F3D93349F48FEFFB
:1049B00097EEE3E081509040E040E1F700C0000056
:1049C0008D2F0E9495207FCF8C2F869586958370A2
:1049D00069F0813009F077CF8D2F9C2F9370B11043
:1049E00002C080E090E00E94B8106DCF8D2F9C2F08
:1049F0009370B11002C080E090E00E94DE1063CF9F
:104A00006B2D8D2F0E94BD1F5ECF8C2F837009F000
:104A100040C0B11058CF4D2F429546954770440F76
:104A2000440F2D2F2F7030E0042E02C0220F331FB1
:104A30000A94E2F790E080E0D4FF09C08FE090E0B4
:104A400002C0880F991F4A95E2F780959095C69508
:104A5000C695C370C230A1F0C33079F040910F0207
:104A600050911002C13039F0822B932B842395236F
:104A70000E94D81428CF242B352B822B932BF8CFD0
:104A8000822B932B20910F023091100282279327C3
:104A9000EFCF8695BB2011F08C2F8170882309F40D
:104AA00012CF4D2F429546954770440F440F2D2F3E
:104AB0002F7030E0042E02C0220F331F0A94E2F759
:104AC00090E080E0D4FF09C08FE090E002C0880F42
:104AD000991F4A95E2F780959095C695C695C37043
:104AE000C230A1F0C33079F0409168025091690260
:104AF000C13039F0822B932B842395230E949A1482
:104B0000E2CE242B352B822B932BF8CF822B932BA9
:104B1000209168023091690282279327EFCFCF70EE
:104B2000BB2029F08C2F0E94C8148D2F02CF8D2F0F
:104B30000E94A1158C2F0E949F14C5CE8D2FF2EFDD
:104B40009F1699F1F91570F020EF9216D1F091EFC0
:104B5000991691F0BB2009F45BC0A1106ECE8C2F8A
:104B60008F7127C0E3EF9E1639F1F4EF9F12F2CF59
:104B700080915F0382FD2EC08C2F8F71BB20D9F2F4
:104B800018C0BB2069F024E02A1508F49CCECF7130
:104B900081E090E002C0880F991FCA95E2F7B8CF74
:104BA00085E08A1508F48FCEF2CF8C2F8F71B1106B
:104BB000C2CF0E94C81487CE90E080E0BB2009F4E9
:104BC0009DCFCF7181E090E002C0880F991FCA95F8
:104BD000E2F794CFBB2089F0CF718C2F0E94C814CC
:104BE00080915F0382FF07C0E8E0CE9FC0011124DF
:104BF00083608093EB018C2FDCCF81E00E94B114A5
:104C0000F1E0FA1508F05FCE82E00E94B1145BCEAD
:104C1000AA2059F0893309F0D3CE2FEF87EE93E025
:104C2000215080409040E1F7C9CE8C2F8F7183CF07
:104C3000FE01E851FC47E730F10508F4CCCBC63162
:104C4000FCE7DF0709F4E0CC80910E028272FE01DE
:104C5000E052F847E531F10508F0F8CCE85FFB4C8D
:104C60000C941D33C631FCE7DF0709F0D7CC8091E7
:104C70000E028A7A91E009F490E09093CA0169E209
:104C8000811165E38AEA91E00E9482100E944C152E
:104C9000B9CBCF93DF938091EA01807F09F04DC0BB
:104CA0008091E901882309F448C0E091C80350913C
:104CB0008F03C091E501D091E4016091E60170910C
:104CC000E70147E05E17C9F18E2F90E0E49FF00105
:104CD0001124E057FC4F2481222391F1489FF001D9
:104CE000499FF00D1124DF01A057BC4F11962C9164
:104CF00011972C1325C02C912D1322C015962C91A1
:104D0000159721111DC012962D913C91261B370B32
:104D1000283C3105A8F48091EA018F70806180936E
:104D2000EA01EA56FC4F80818F708061808384EEB7
:104D300091E00E949D210E94E413DF91CF9108959C
:104D4000FC013196E770BECFADE0B0E0EAEAF6E2F2
:104D50000C94D8328C0186E0F801DE01189601909F
:104D60000D928A95E1F7F8018481E58094EEA92EF1
:104D700091E0B92E9091E801911128C0882319F192
:104D8000EE20F1F0C8010E94DD14F82E8823C1F056
:104D900087E0F801D50101900D928A95E1F78091A5
:104DA000E801813031F48091E4019091E5010E94A5
:104DB00022140E9449268F2D2D96ECE00C94F4329B
:104DC000C8010E949D21FF24F394F5CFD080C180BB
:104DD00082809380F090E9012091E6013091E70113
:104DE000A401421B530BFF2009F4BCC0483C5105F1
:104DF00008F092C08823F9F29091E5018091EA01D0
:104E0000282F207F09F056C0C91214C09091E401E8
:104E1000D91210C0E11048C08F7080618093EA0100
:104E200084EE91E00E949D218091EA01F801868341
:104E3000F12CC1CFE11038C06C2D8D2D0E949A0E3F
:104E40006C2D8D2D0E949A0EE82E8111F1CFD886FF
:104E5000C986888599850E942214292F22952F7052
:104E6000903458F49F70223088F0992399F0F8011B
:104E70009681907F79F4FE2C9ECF2A5F2F7022308E
:104E800068F0C8010E949D21EF2CF5CF992311F005
:104E9000882389F3805E883070F3F3CF803F58F326
:104EA000815F833040F3EDCF8091EA018160809390
:104EB000EA01BECFC91207C09091E401D91203C024
:104EC000EE2009F470C0C8010E94DD14882309F4A3
:104ED00077CFEE2009F474CF8091EA01803288F018
:104EE0002091E4013091E5013A8329839C828B82F1
:104EF0009091E8019D831E828F83CE0101960E94CE
:104F00009D2187E0F801A4EEB1E001900D928A9511
:104F1000E1F70E94492657CF9091EA01292F207F7F
:104F200051F484EE91E00E949D2187E0F5011192F9
:104F30008A95E9F77DCF882309F43DCF8091E5017B
:104F40008C11C1CF8091E401D812BDCFE110BBCF4D
:104F50009683C8010E949D2187E0F50111928A95F0
:104F6000E9F729CF483C5105B8F7882309F42BCF3E
:104F7000FE2CEE2009F424CF8091E5018C1120C095
:104F80008091E401D8121CC08091EA0180FD0FC01D
:104F9000982F907F61F08683903F31F0982F907F1B
:104FA000905F8F70892B8683C8010E949D2187E0C6
:104FB000F801A4EEB1E001900D928A95E1F7FBCEE5
:104FC000C8010E94DD1481119CCF8091EA018160AB
:104FD0008093EA01C8010E949D21EDCEABE1B0E0D3
:104FE000E4EFF7E20C94E0324E8B5F8B688F798FA1
:104FF0008A8F192F9B8F911110920D021D8A86E0C6
:10500000FE017696DE011F9601900D928A95E1F7DA
:105010000A8D002341F021E04F85588969897A89FA
:10502000C8010E9428150B8B1C8B87E0FE013F9660
:10503000DE01189601900D928A95E1F7CE0108964F
:105040000E94A42681110CC087E0FE013896DE0183
:10505000119601900D928A95E1F74C8541110BC094
:1050600017E08091C80390918F03891332C06B962B
:10507000E4E00C94FC3220918F0330E0C9010196EA
:10508000877099275091C80358171906A1F04D83CE
:1050900097E0929FD001939FB00D1124A057BC4F71
:1050A000FE01319601900D929A95E1F780938F035E
:1050B0000E94E413D5CF0E94831C10928F0310929C
:1050C000C80387E0E4EEF1E0DF011D928A95E9F77D
:1050D000C7CF819FC001112480579C4F0E94A426F6
:1050E000882329F28091C80390E001968770992760
:1050F0008093C803B6CFA7E1B0E0E1E8F8E20C94F2
:10510000D8321D861C86FE013E9686E0DF011D9288
:105110008A95E9F783E9E82E81E0F82E10E000E0B7
:10512000CC24C394D12C2DE9A22E21E0B22EF7017C
:1051300081917F018F3F09F445C0F894E82FE295F3
:10514000EF70F0E021A18F70A60102C0440F551F3F
:105150008A95E2F7CA01922F982B91A392A180958C
:10516000892382A3789400C0E7E9F1E031E0912C33
:1051700021912F3F09F470C0A22FA295AF70B0E02B
:1051800090968C9190E02F7002C0959587952A9506
:10519000E2F780FD61C0832F982A330FAE16BF0659
:1051A00039F7F701319780818F3F11F00E94A811E4
:1051B00050EA5A95F1F7ECE0F0E0EC0FFD1FE00F3C
:1051C000F11F90820F5F1F4F0430110509F0AFCF20
:1051D00048E050E0BE01645F7F4F87E492E00E94A8
:1051E00059339C01892B49F088E0FE013C96A7E4E5
:1051F000B2E001900D928A95E1F700915002232BC5
:1052000069F181E0809315020E94511C9093140271
:105210008093130280911302909114020E94421C09
:10522000059700F110E00E5A1D4F44E050E067E48E
:1052300072E0C8010E945933E12C892B51F084E0BF
:10524000E7E4F2E0D80101900D928A95E1F7EE24AF
:10525000E3941092150207C080E09ECF8091150262
:105260008111D8CFE12C0E94A716F82EE0915002B0
:10527000882309F47DC01A8219821C821B820E2F9A
:1052800010E00E5A1D4F809142028A30D8F54FE24D
:105290005AE1BE016F5F7F4FC8010E946E168823DE
:1052A00009F455C047E759E1BE016F5F7F4FC80160
:1052B0000E946E16882309F44AC04EEC59E1BE01E3
:1052C0006F5F7F4FC8010E946E16882309F43FC0AC
:1052D0001092420280914F0290E044E050E0BE0103
:1052E0006F5F7F4F8E5A9D4F0E94593321E020936C
:1052F0001C02892BF1F4F12C8F2D8E296796ECE09E
:105300000C94F43280911602909117020E94421C74
:10531000843F914008F0BBCF80911C02882359F351
:1053200084E0FE013196DF011D928A95E9F7109223
:105330001C02E0914F02F0E0EE5AFD4F89819A8104
:10534000AB81BC8180839183A283B383D5CF8091CD
:1053500042028F3F31F08F5F809342028A3008F41F
:10536000B9CF0E94511C9093170280931602D4CF9C
:10537000F0E0EE5AFD4F80819181A281B38180934C
:105380002B0290932C02A0932D02B0932E028BE25D
:1053900092E00E94B80E80932A0280902F02909093
:1053A0003002A0903102B0903202809118029091A8
:1053B0001902A0911A02B0911B0288169906AA063A
:1053C000BB06D1F08092180290921902A0921A02A4
:1053D000B0921B020E94A71681110EC00E943910C4
:1053E000861A970AA80AB90A809243029092440248
:1053F000A0924502B09246028BE0E3E3F2E0DE01C8
:10540000119601900D928A95E1F78091330286956D
:1054100000913402D0903502C090360210913D02C6
:1054200010923D02112309F467CF10FF10C02981AB
:105430002170982F990F292B29839091450320FFE4
:105440000FC091609093450360E00E94091911FF1D
:1054500053CF20E04C2D6D2D802F0E94AE174CCFE6
:105460009E7F909345038091A20281608093A20267
:105470000E942316ECCFA6E0B0E0E1E4FAE20C943F
:10548000E0320E94511C8C01809111029091120215
:105490008017910781F019821A820E94511C682F8F
:1054A00049815A81792F80E090E00E94EE27109385
:1054B0001202009311022696E4E00C94FC321F9233
:1054C0001FB61F9211248F939F93AF93BF93809128
:1054D0005903811113C080915A0390915B03A091ED
:1054E0005C03B0915D034196A11DB11D80935A03E9
:1054F00090935B03A0935C03B0935D03BF91AF9166
:105500009F918F911F901FBE1F901895CDB7DEB74A
:10551000AF970FB6F894DEBF0FBECDBF85B78068DA
:1055200085BF85B7806885BF84B7877F84BF0FB686
:10553000F894A89580916000886180936000109233
:1055400060000FBE80E890E00FB6F8948093610091
:10555000909361000FBE86EA91E19093A901809338
:10556000A8010E94CF0E0E94700F8091E20084601B
:105570008093E2007894809185038823A1F01091B4
:10558000E9001F709091EC00892F817090FD80E8F8
:10559000182B1092E9008091E80083FD0E94B21C54
:1055A0001F701093E90082E084BD93E095BD9AEFEF
:1055B00097BD80936E0010924302109244021092A5
:1055C0004502109246020E94A71680932001809106
:1055D0002001882309F475C0109231018BE180937A
:1055E00032010E94A71681110E945B318091200137
:1055F0008091200194E0811190E09093500284E02A
:10560000891B80934F0284E90E94A81186E60E94BC
:10561000A81187E90E94A81186EC0E94A81107E949
:1056200011E0D8018D918D018F3F11F00E94A811DA
:10563000B1E00D391B07A9F788E0E2E5F2E0DF01F0
:10564000882E1D928A94E9F7E7E4F2E0DF011D92CB
:105650008A95E9F790E080E00E947D33863E9E4F78
:1056600011F00E94D81A82E090E00E946F3380937C
:105670005A0284E090E00E947D3390935F03809310
:105680005E030E947B28EFEFF6E721E0E150F04057
:105690002040E1F700C000000E947B280E94A7166E
:1056A000E4E08111E0E0F0E0EE5AFD4F808181FFFF
:1056B0000CC06FEF7FEF90E080E00E94B1330E945A
:1056C00028108BE1809331018ACF83E090E00E9423
:1056D0006F3390E00E94D8140E94A71683E0809355
:1056E0008E0280E28093CC030E9405306BE070E074
:1056F0008FE79AE10E940E17882309F443C0809136
:105700008E0265E070E081FD5CC18AE79AE10E944B
:105710000E178823B9F16DE070E088E69AE10E94E7
:105720000E17882379F10E9439106D8B7E8B8F8B39
:10573000988FDC01CB01805A9541AF4FBF4F8093CA
:105740004D0390934E03A0934F03B0935003EFEC9F
:10575000F3E080E092E0DF019C011D922150304097
:10576000E1F7F093D005E093CF058FEF9FEF909393
:10577000CE038093CD0381E0809352038093510345
:1057800010928F0280915102811176C090E080E0EA
:105790000E947D33863E9E4F21F00E94D81A0E94BF
:1057A000431988E090E00E9477336B017C0184E22A
:1057B00090E00E946F33282F30E040E050E060E03E
:1057C00070E080E090E000E20E9423332601370180
:1057D0002C2935294E295729209345033093460318
:1057E00040934703509348036093490370934A03DF
:1057F00080934B0390934C038091A202836080932B
:10580000A2022E7F61F50E94431988E090E00E9479
:1058100077336B017C0184E290E00E946F33282F84
:1058200030E040E050E060E070E080E090E00E9416
:10583000233326013701C22A35294E295729C09220
:1058400045033093460340934703509348036093C6
:10585000490370934A0380934B0390934C030E9437
:105860004E118091450380FF04C060E086950E9440
:10587000091981E0809351020E94A716811102C08C
:105880000E945E3181E291E090935603809355032C
:105890008091370190913801A0913901B0913A017E
:1058A0008C8F9D8FAE8FBF8F60903B0170903C01BD
:1058B00020903D0130903E0120913F013091400108
:1058C000409141015091420128A339A34AA35BA30F
:1058D0006CA67DA62EA63FA66D8A798E2A8E3B8E5B
:1058E0008091430190914401A0914501B0914601FE
:1058F0008CA39DA3AEA3BFA3209147013091480183
:105900004091490150914A0128A739A74AA75BA7AE
:105910008091850370E4F72E00E112E1853009F4EF
:105920008CC00E947B280BE512E062E5E62E62E067
:10593000F62E23E632E0D701F80191918D912E17D2
:105940003F0709F484C09817C1F30E94A716882E58
:10595000D12C55245394D701CD907D01F80191901D
:105960008F019C1429F19C24B12CAA24A394892D85
:105970008A21B1F08820A1F0B982DA820E94511CFC
:105980009C838B835D8291E08C2D8A2109F490E0C9
:105990009E8349815A816B817C818D810E94EE2793
:1059A000B394AA0CF6E0BF12E2CFF8013197C0829F
:1059B000D39428E0D212CFCF0E94DB16AA24A3945E
:1059C0004BC085E79AE1A3CE80918503843029F10D
:1059D0000E9438171092590348E150E00FB6F8942E
:1059E000A895409360000FBEF092600083B7817F5E
:1059F000846083BF83B7816083BF7894889583B7C1
:105A00008E7F83BF0FB6F894A8958091600088615F
:105A100080936000109260000FBE80918403882301
:105A200061F00E947B28E2E5F2E081918111CDC214
:105A30008AE592E08E179F07C1F780918503853034
:105A400009F4C2CF0E94831C0E94CA166ACF981321
:105A50007CCF0E943B2AA12C0E94A7168091520362
:105A6000882309F46DC080919002909191020E9468
:105A7000421CC297D8F10E94511C909391028093CE
:105A800090028FEC93E09093D0058093CF050E9415
:105A9000A716882309F486C1809168029091690253
:105AA0000E940415823009F430C1E8F420916402A8
:105AB00030916502811124C188A599A5AAA5BBA52D
:105AC00089879A87AB87BC878D888982898C8A82EF
:105AD0008A8C8B828B8C8C82C9010E94421C8E34F2
